:020000040800F2
:10000000D80500209D010008FF1B00080D190008FD
:10001000FD1B0008A90200083122000800000000B2
:10002000000000000000000000000000031C0008A9
:100030004D03000800000000011C0008051C00081A
:10004000B7010008B7010008B7010008B7010008B0
:10005000B7010008B7010008B7010008B7010008A0
:10006000B7010008B7010008B7010008B701000890
:10007000B7010008B7010008B7010008B701000880
:10008000C5020008B7010008B7010008B90200085E
:10009000AD020008B7010008B7010008B701000869
:1000A000B7010008B7010008B7010008B701000850
:1000B000B7010008F11C0008FD1C0008B70100088A
:1000C000B7010008B7010008B7010008B701000830
:1000D000B70100081922000825220008B70100080E
:1000E000B7010008B7010008B7010008B701000810
:1000F000B7010008B7010008B7010008B701000800
:10010000B7010008B7010008B7010008B7010008EF
:10011000B7010008B7010008B7010008091D000871
:10012000B7010008B7010008B7010008B7010008CF
:10013000B7010008B7010008B7010008B7010008BF
:10014000B7010008B7010008B7010008B7010008AF
:10015000B7010008B7010008B7010008B70100089F
:10016000B7010008B7010008B7010008B70100088F
:10017000B7010008B7010008B7010008000000003F
:10018000B7010008B7010008DFF80CD000F07AF8DA
:1001900000480047AD220008D805002006488047E7
:1001A00006480047FEE7FEE7FEE7FEE7FEE7FEE75C
:1001B000FEE7FEE7FEE7FEE79D1C00088901000858
:1001C0002DE9F05F0546002092469B46884606468C
:1001D000814640241BE0284641464746224600F01F
:1001E00041F853465A46C01A914110D31146184659
:1001F000224600F028F82D1A67EB01084F462246E8
:100200000120002100F01FF817EB00094E41201ECD
:10021000A4F10104DFDC484631462A464346BDE8E6
:10022000F09FD2B201E000F8012B491EFBD27047CB
:100230000022F6E710B513460A4604461946FFF7B2
:10024000F0FF204610BD202A04DB203A00FA02F11C
:10025000002070479140C2F1200320FA03F31943B4
:1002600090407047202A04DB203A21FA02F0002156
:10027000704721FA02F3D040C2F1200291400843B6
:1002800019467047064C074D06E0E06840F0010350
:1002900094E8070098471034AC42F6D3FFF778FF94
:1002A0000423000824230008FEE70000014800F0B2
:1002B000EAB8000010000020014800F0E4B8000097
:1002C00010000020014800F0FBBA00007801002077
:1002D00001681823CAB2103AB2FBF3F2054B6FF370
:1002E0000901032A9B5CC36500D9091D8165084685
:1002F00070470000E422000810B5014600208B6919
:100300008A6A4FF0C07453B1B3F5005F15D072B173
:10031000012A0CD0022A0AD0032A09D104E01AB11A
:10032000012A06D0022A03D1C96AC90100D50120D9
:1003300010BDC96AA142FAD010BD002AF7D0012A27
:10034000F2D0022AF3D0032AF3D010BD704701F097
:10035000DFBA90F82020012A07D0022A05D0416A8E
:1003600041F48021416201207047006842690A43DC
:10037000426100207047000010B590F82020012A4B
:1003800007D0022A05D0416A41F480214162012050
:1003900010BD3B48D0F8002242F00102C0F8002214
:1003A000D0F8002222F47C52C0F80022D0F80022BB
:1003B0004B6A42EA0322C0F800220A7D02F01F03C2
:1003C00001229A40D0F81C329343C0F81C32CB690A
:1003D000B3B9D0F80C329343C0F80C328C894B6817
:1003E00064F31F434C6900EBC404C4F840320C8929
:1003F0000B6864F31F434C6900EBC404C4F8443237
:10040000CB69012B16D1D0F80C321343C0F80C3253
:100410000C884B6864F31F434C6900EBC404C4F8B8
:1004200040320C89CB6864F31F434C6900EBC40471
:10043000C4F844328B69002BD0F804320ED0134339
:10044000C0F804320B69002BD0F8143208D01343E3
:10045000C0F81432096A012904D008E09343EFE799
:100460009343F5E7D0F81C121143C0F81C12D0F8E2
:10047000001221F00101C0F80012002010BD0000A0
:100480000064004070472DE9F05F054600680024D5
:100490004669D0F804908768D0F80CB0D0F810A066
:1004A000D0F81880F10748D0F90714D001218160F5
:1004B000B80703D5284600F0EAF90CE0780702D522
:1004C0004FF4006407E0380702D54FF4805402E08F
:1004D000284600F0DBF9F80516D529684FF480703E
:1004E0008860B80503D5284600F0D3F90CE07805FC
:1004F00002D544F4005407E0380502D544F48044A2
:1005000002E0284600F0C4F9F80316D529684FF434
:1005100080308860B80303D5284600F0BCF90CE0B1
:10052000780302D544F4004407E0380302D544F4CC
:10053000803402E0284600F0ADF9300707D55FEAC5
:10054000CB6004D52968102044F40074C86070079B
:100550004FF0080707D55FEA0B7004D52868C7601D
:10056000284600F061F9B00706D52868C068800702
:1005700002D0284600F059F9700607D55FEACA6034
:1005800004D52968102044F480640861B00607D5BA
:100590005FEA0A7004D528680761284600F046F92A
:1005A000F00606D528680069800702D0284600F0CA
:1005B0003EF9B00308D55FEAC96005D52968102067
:1005C0004860284600F034F9F00307D55FEA097067
:1005D00004D528684760284600F05EF9300446D507
:1005E0005FEA497040D5F00504D55FEAC87001D0D4
:1005F00044F00104B00504D55FEA887001D544F0E9
:100600000204700504D55FEA487001D544F0040483
:10061000300529D518F0700F26D008F0700040285A
:1006200015D006DC102809D020280AD0302816D191
:100630000AE050280ED0602811D10EE044F00804E2
:100640000DE044F010040AE044F0200407E044F018
:10065000400404E044F0800401E044F4807428681D
:10066000816921F070018161296804204860002CB3
:1006700005D0686A204368622846FFF703FFBDE89B
:10068000F09F70B5040003D094F8200010B104E08E
:10069000012070BD204600F081F82068016821F03B
:1006A0000201016000F024FB0546052604E000F08D
:1006B0001FFB401B0A2811D8206840688007F6D429
:1006C0002068016841F00101016000F011FB05465E
:1006D0000BE000F00DFB401B0A2806D9606A40F4CD
:1006E0000030606284F82060D2E720684068C0076C
:1006F000EFD0207E0128206801683DD021F08001E4
:100700000160607E01282068016838D021F0400136
:100710000160A07E01282068016833D021F020010B
:100720000160E07E0128206801682ED041F01001B0
:100730000160207F01282068016829D021F008018C
:100740000160607F01282068016824D021F0040145
:100750000160D4E902010843D4E9041211430843BB
:100760006168491E08432168C86100206062012059
:1007700084F82000002070BD41F08001C0E741F006
:100780004001C5E741F02001CAE721F01001CFE7A1
:1007900041F00801D4E741F00401D9E710B586B073
:1007A000044614216846FFF743FD1C49206888422F
:1007B00031D11B480021026842F0007202600068DB
:1007C00000F00070059016481038026842F00102EF
:1007D0000260006800F0010005904FF4C0500090E6
:1007E0000220CDE90101032003900920049069460D
:1007F0000C4800F09FF900221146132000F0E6FAA1
:10080000132000F0D5FA00221146142000F0DEFA81
:10081000142000F0CDFA06B010BD000000640040C6
:1008200040380240000002407047704770477047F0
:100830007047000070B5044690F82000012804D0ED
:10084000606A40F40020606218E0022084F8200012
:100850002068016821F00101016000F049FA0546B5
:100860000EE000BF00F044FA401B0A2808D9606A75
:1008700040F400306062052084F82000012070BD43
:1008800020684068C007EDD1606270BD7047704756
:100890007047704770477047704790F835100229CD
:1008A00003D08021416501207047052180F8351073
:1008B0000068016821F0010101600020704700001C
:1008C0002DE9F84304464FF00009CDF80090634845
:1008D0004FF41651A56D0068B0FBF1F72E6894F83F
:1008E0005C10082000FA01F131420FD021680A683B
:1008F00052070BD50A6822F004020A6094F85C10D3
:100900008840A860606D40F00100606594F85C105C
:100910004FF0010808FA01F0304208D02168496917
:10092000090604D5A860606D40F00200606594F887
:100930005C1004208840304208D02168096889078B
:1009400004D5A860606D40F00400606594F85C1008
:1009500010208840304218D021680968090714D552
:10096000A86020680168490304D50068000308D521
:10097000A16C07E00168C90503D4016821F00801F2
:100980000160216C09B12046884794F85C10202052
:100990008840304231D021680968C9062DD5A86049
:1009A00094F8350005282068016806D0490347D52A
:1009B000006800031DD4616C1CE021F01601016089
:1009C0002068416921F080014161206C08B9A06C68
:1009D00020B12068016821F00801016094F85C10E2
:1009E0003F208840A86084F8349084F83580216DD9
:1009F0001FE0E16B09B120468847606D00282BD0CD
:100A0000606DC00714D0052084F8350020680168A7
:100A100021F0010101600098401C0090B84203D809
:100A200020680068C007F6D184F8349084F83580D7
:100A3000E16C002910D001B02046BDE8F043084722
:100A40000168C905D5D4016821F01001016084F85E
:100A5000349084F83580CCE7BDE8F8830C000020A2
:100A60002DE9F041044600F043F906465CB100254B
:100A700084F83450022084F835002068016821F0A1
:100A8000010101600DE00120BDE8F08100F030F9C6
:100A9000801B052805D920206065032084F83500D7
:100AA000F2E720680068C007F0D12268116820488A
:100AB0000140D4E901031843D4E903363343184312
:100AC00063691843A3691843E3691843236A184309
:100AD0000843616A042903D1D4E90B13194308437D
:100AE000106020684069666A20F0070130460E43B6
:100AF000012704280CD1A06A0643E06A40B12046D1
:100B0000FFF7FAFB20B14020606584F83570BAE742
:100B1000206846612046FFF7DBFB94F85C203F210C
:100B200091408160656584F835700020ACE7000075
:100B30003F8010F02DE9F84FDFF87CB100224FF034
:100B400001084FF0030A4FF00F090BF1040E00BF2C
:100B50000B6808FA02F42340A3426ED14D68022DBF
:100B600001D0122D0ED1D50800EB850CDCF82050F9
:100B70005607F70E09FA07F6B5430E69BE402E4335
:100B8000CCF82060066855000F790AFA05FC07F0DA
:100B9000030726EA0C06AF40374307604E68012E74
:100BA00005D0022E03D0112E01D0122E0ED1866850
:100BB000CF6826EA0C06AF40374387604668A643F5
:100BC0000C79C4F30014944034434460C6688C68C4
:100BD00026EA0C06AC403443C4604C68E40065D59A
:100BE000364C256845F480452560246822F00305CD
:100BF00004F480440094324C2E19D6F80848950726
:100C00002F0F09FA07F5AC432E4DA84201D100255C
:100C100024E02D4DA84201D101251FE02B4DA84213
:100C200001D102251AE02A4DA84201D1032515E081
:100C3000284DA84202D1042510E037E0264DA842F5
:100C400001D105250AE0254DA84201D1062505E080
:100C5000234DA84201D1072500E00825BD402543CA
:100C6000C6F80858DBF800405D464E689C43F60322
:100C700000D51C432C60DEF8004075464E689C434E
:100C8000B60300D51C432C600B4D08352C684E680C
:100C90009C43F60200D51C432C60074D0C352C6894
:100CA0004E689C43B60200D51C432C60521C102A8F
:100CB000FFF44EAFBDE8F88F003C014044380240DD
:100CC00000300140000002400004024000080240E1
:100CD000000C0240001002400014024000180240C4
:100CE000001C02400AB1816170470904FBE7000063
:100CF00001488068704700000000002002488168B9
:100D00000278114481607047000000200B4810B544
:100D1000016841F400710160016841F48061016083
:100D2000016841F480710160032000F06FF8002039
:100D300000F006F800F024F8002010BD003C02404E
:100D400070B50D4D04464FF47A712878B1FBF0F080
:100D50000A490968B1FBF0F000F0E0FA48B9102C3C
:100D600007D200222146501E00F030F800206C60AF
:100D700070BD012070BD0000000000200C000020AC
:100D80000A4808B5016841F480410160006800F438
:100D9000804000900548001F016841F080510160CB
:100DA000006800F08050009008BD00004438024008
:100DB000002809DB00F01F0201219140400980005A
:100DC00000F1E020C0F8001170470000F0B40E4BB5
:100DD0001B680C46C3F30223C3F10705042D00D999
:100DE0000425191D072901D2002300E0DB1E01267E
:100DF00006FA05F1491E214099409E40761E164094
:100E00003143F0BC01F015BA0CED00E0064900F0EA
:100E1000070208684FF6FF03184040EA0220034A21
:100E200010430860704700000CED00E00000FA0578
:100E30002DE9F0470E46050065D0DFF81481D8F89B
:100E40000000F7B200F00F00B04207D288F800703F
:100E5000D8F8000000F00F00B04254D128683D4C93
:100E6000810712D5400703D5206840F4E050206088
:100E70002878000703D5206840F46040206020688F
:100E8000A96820F0F000084320602878C0072DD022
:100E9000304968680839012812D0022813D0032885
:100EA00011D00968890700292DDA216821F0030192
:100EB00001432160FFF71CFF814641F2883A0EE0B2
:100EC00009688903EFE709688901ECE7FFF710FF7C
:100ED000A0EB0901514502D90320BDE8F087206845
:100EE000696800F00C00B0EB810FEFD1D8F800106A
:100EF000404601F00F01B14207D90770006800F0C9
:100F00000F00B04201D00120E7E72878400705D55F
:100F10002068E96820F4E050084320602878000742
:100F200006D52068296920F4604040EAC1002060AD
:100F300000F036F82168084AC1F30311515CC8403B
:100F4000064908600020FFF7FBFE0020C5E700000F
:100F5000003C024008380240EC2200080C0000204F
:100F60000448054900680968044AC1F38221515CBC
:100F7000C84070470C00002008380240FC220008DE
:100F80000448054900680968044AC1F34231515CCC
:100F9000C84070470C00002008380240FC220008BE
:100FA000154810B5006810F00C02144813D0411019
:100FB000042A0FD0082A0ED10F4C241F2268236860
:100FC00002F03F025B0207D52068C0F38810A0FB47
:100FD000010106E0084610BD2168C1F38811A1FB9C
:100FE00000010023FFF7ECF82168C1F30141491C1F
:100FF0004900B0FBF1F010BD083802400024F400B5
:101000002DE9F84F050076D02878DFF8F8B2BE4C0D
:10101000C00749D0DBF800105846C1F3810101290F
:1010200008D00068C0F3810002280AD1201D0068A2
:10103000400206D52068800336D568680028E2D0D3
:1010400032E06868B0F5803F10D0B0F5A02F20687E
:1010500010D020F480302060206820F480202060B0
:101060006868A0B1FFF744FE06460CE0206840F433
:101070008030F4E740F480202060F7E7FFF738FE87
:10108000801B642873D820688003F7D50CE0FFF735
:101090002FFE064605E000BFFFF72AFE801B6428EE
:1010A000F0D820688003F7D42878DFF860828007C2
:1010B0004FF000093ED5DBF80010584611F00C0F38
:1010C00009D00068C0F3810002280BD18D48001FB1
:1010D0000068400206D42068800715D5E86801281A
:1010E00009D111E0E868B8B10120C8F80000FFF7A5
:1010F000FFFD064605E002E1FFF7FAFD801B02282E
:10110000C0D820688007F7D52068296920F0F8004A
:1011100040EAC10020600DE0C8F80090FFF7E8FD4C
:10112000064604E0FFF7E4FD801B02281FD8206874
:101130008007F7D42878000722D5724E7448696971
:101140006C3671B101210160FFF7D2FD074604E062
:10115000FFF7CEFDC01B022809D830688007F7D5FD
:101160000EE0C0F80090FFF7C3FD074605E083E0FE
:10117000FFF7BEFDC01B02287ED830688007F7D479
:101180002878400768D5DFF87CA100270AF1380AE3
:10119000DAF80000C0000BD4DAF8001041F08051FA
:1011A000CAF80010DAF80000012700F08050009023
:1011B000584E3068C00510D4306840F480703060FC
:1011C000FFF796FD009005E0FFF792FD0099401AA9
:1011D000022851D83068C005F6D54A4EA86868364E
:1011E00001280FD00528306810D020F001003060B1
:1011F000306820F004003060A868B8B1FFF778FDCF
:1012000000900FE0306840F00100F4E740F0040087
:101210003060F7E7FFF76CFD0099411A41F2883022
:10122000814264D830688007F4D50EE0FFF760FD96
:10123000009007E0FFF75CFD0099411A41F2883009
:10124000814254D830688007F4D42FB1DAF8001006
:1012500021F08051CAF80010A869C0B3DBF8001073
:10126000C1F3810102294AD00228484607D0C8F8B4
:101270006000FFF73DFD00E039E005463AE04746F3
:10128000C8F86000FFF734FD064604E0FFF730FDC4
:10129000801B02282BD820688001F7D4D5E90701EC
:1012A0000843A96A1C4A490802EB01416A6A41EAFB
:1012B0008211084395F82C1040EA01611148001F83
:1012C000016001203866FFF713FD054605E014E0D4
:1012D000FFF70EFD401B022809D820688001F7D5D2
:1012E0000BE000BFFFF704FD401B022802D90320DA
:1012F000BDE8F88F20688001F4D40020F8E70120D1
:10130000F6E700000838024000380240000047427B
:10131000800E4742007000400000FFFF10B5401EE5
:10132000B0F1807F01D3012010BD4FF0E024606157
:101330000F21601700F07DFF0020A06107202061D1
:10134000002010BD7047704770B590F83C20012A0E
:1013500019D0012400F83C4F0222427050F83C3C66
:101360005A689D6822F070060A684968324325F081
:10137000800529435A6050F83C2C9160447000214C
:101380000170084670BD022070BD10B5040003D086
:1013900094F83D0010B107E0012010BD002084F852
:1013A0003C00204600F00CF8022084F83D00211D8E
:1013B000206800F0AFFC012084F83D00002010BD43
:1013C00008B51E4A01681E4891420ED1016841F0DD
:1013D000020101600068002200F002000090114646
:1013E0001D20FFF7F3FC1D2022E0164A91420ED18A
:1013F000016841F0040101600068002200F004006F
:10140000009011461E20FFF7E1FC1E2010E00E4A5E
:10141000914211D1016841F0200101600068002271
:1014200000F02000009011463720FFF7CFFC372056
:10143000BDE80840FFF7BCBC08BD00000004004048
:1014400040380240000800400014004070B50446D7
:1014500090F83C00012817D0012584F83C50022068
:1014600084F83D002068826822F0770222F47F42EF
:1014700082600868502830D00DDC20284DD005DC73
:1014800098B310283BD148E0022070BD302844D0EA
:10149000402834D139E0602828D0702806D0B0F533
:1014A000805F2CD0B0F5005F29D10AE0CB68D1E98C
:1014B0000121206800F092FC2068816841F07701EA
:1014C00009E0CB68D1E90121206800F087FC2068A1
:1014D000816841F48041816011E0CA6849682068F0
:1014E00000F08EFC5021206807E016E0CA684968C9
:1014F000206800F096FC6021206800F079FC84F8F8
:101500003D50002084F83C0070BDCA6849682068DE
:1015100000F076FC40212068EFE722680146104683
:10152000EBE7704770B50446006801694FF00005AD
:10153000C943890715D4C168C943890711D4E91E75
:10154000016101202077206880698007204602D051
:10155000FFF7E7FF04E000F098F8204600F096F867
:10156000257720680169C943490717D4C168C94371
:10157000490713D46FF0040101610220207720682D
:10158000806910F4407F204602D0FFF7CAFF04E0D4
:1015900000F07BF8204600F079F825772068016993
:1015A000C943090716D4C168C943090712D46FF0AB
:1015B00008010161042020772068C0698007204667
:1015C00002D0FFF7AEFF04E000F05FF8204600F025
:1015D0005DF8257720680169C943C90617D4C16839
:1015E000C943C90613D46FF01001016108202077A8
:1015F0002068C06910F4407F204602D0FFF791FFB9
:1016000004E000F042F8204600F040F8257720681A
:101610000169C943C90708D1C168C943C90704D1D1
:10162000891E0161204600F032F820680169C94333
:10163000090609D4C168C943090605D46FF08001C1
:1016400001612046FFF77EFE20680169C943490613
:1016500009D4C168C943490605D46FF0400101614E
:10166000204600F015F820680169C94389060BD4AB
:10167000C168C943890607D46FF020010161204683
:10168000BDE87040FFF75FBE70BD704770477047A0
:101690007047704770B5026804461068D168536996
:1016A00010F00F0F51D003F0010501F4907635438F
:1016B0005DD0C20705D0CA0503D5E26B42F0010236
:1016C000E263420705D5DA0703D0E26B42F002027B
:1016D000E263820705D5DA0703D0E26B42F0040229
:1016E000E263020705D5DA0703D0E26B42F0080295
:1016F000E263E26B002A34D0800604D5880602D566
:10170000204600F0B6FB20684069E16BC0F3801012
:1017100001F008010143204624D000F09CFB206822
:10172000416949061AD5416921F040014161606B68
:10173000A0B11B490165606BFFF7AFF8002810D01E
:10174000606B016DBDE87040084783060FD58B06BE
:101750000DD52046BDE8704000F08BBB2046FFF75A
:1017600098FF70BDFFF795FF0020E06370BD030692
:1017700006D50B0604D52046BDE8704000F01ABD22
:101780004006F3D54806F1D5D168204621F0400146
:10179000D160202184F8391000F0B7F870BD000046
:1017A000471E000870B5040004D094F839000025E5
:1017B00010B106E0012070BD84F83850204600F0DA
:1017C00023F8242084F839002068C16821F40051EE
:1017D000C160204600F098FB2068016921F4904127
:1017E00001612068416921F02A0141612068C168D6
:1017F00041F40051C160E563202084F8390084F889
:101800003A00002070BD0000F0B587B006461421F4
:101810006846FEF70DFDDFF8D8E030680025354951
:10182000022201230324344F4FF0070C70451FD1CF
:1018300030481430056845F010050560006800F078
:1018400010000590086840F00100086008686946CB
:1018500000F00100059060028DE81D103846FFF78A
:1018600069F9002211462520FFF7B0FA25203BE058
:10187000DFF888E0704539D11E481030D0F800E01C
:101880004EF4003EC0F800E0006800F4003005901F
:10189000086840F0010008600868694600F001002F
:1018A00005900C208DE81D103846FFF743F9154CC4
:1018B000134820604FF00060C4E901054014C4E9FA
:1018C00003506561A561E561256220466562FFF709
:1018D000C7F808B1FEF73BFD7463002211462620CD
:1018E000A663FFF773FA2620FFF762FA07B0F0BD90
:1018F0000010014030380240000002400044004027
:10190000886002407801002070477047FEE70000C1
:1019100010B5064C012291022046FFF7E3F920465C
:101920000122BDE810405102FFF7DCB9001402406B
:10193000114810B5016886B041F0200101600068CF
:101940000E4C00F0200005904FF4C0600090012084
:10195000019002900320039069462046FFF7EAF8C1
:10196000002261152046FFF7BDF90022211520460F
:10197000FFF7B8F906B010BD30380240001402403D
:10198000114810B50F490160032141604FF08041BB
:10199000816000214FF40022C0E903124FF440128D
:1019A00042610176012242768176C17601774177E4
:1019B000FEF767FE002803D0BDE81040FEF7C7BC65
:1019C00010BD00000064004010000020094808B568
:1019D000016841F4001101600068002200F4001069
:1019E000009011461020FFF7F1F9BDE808401020E3
:1019F000FFF7DEB93038024070B586B01421684672
:101A0000FEF716FC16480025016841F080010160D0
:101A1000016801F080010591016841F00101016058
:101A2000016801F001010591016841F010010160B8
:101A300000680C4E00F010004FF460440590012245
:101A400021463046FFF74EF90121CDE90041CDE9AD
:101A5000021569463046FFF76DF806B070BD00000C
:101A6000303802400010024010B586B000241748FC
:101A70000094019402940394049413490594016022
:101A80005321C0E9011440F2E731C0E90314846135
:101A9000FFF77BFC08B1FEF75AFC4FF48050009032
:101AA00069460A48FFF7D2FC08B1FEF750FC0494DF
:101AB00004A906480594FFF747FC002801D0FEF76B
:101AC00046FC06B010BD00000004004038000020B5
:101AD00010B586B000241848009401940294039431
:101AE000049414490594016042F2D001C0E9011444
:101AF0000521C1604FF4807184610161FFF745FCED
:101B000008B1FEF724FC4FF48050009069460A4863
:101B1000FFF79CFC08B1FEF71AFC049404A90648E0
:101B20000594FFF711FC002801D0FEF710FC06B069
:101B300010BD000000080040780000201CB5002403
:101B40000F4800940D490194016042F2D001C0E9B0
:101B500001144FF47A718461C160FFF716FC08B17B
:101B6000FEF7F5FB0094694605480194FFF7ECFB8E
:101B7000002801D0FEF7EBFB1CBD00000014004064
:101B8000B80000200C4810B50A4901604FF4E1315B
:101B90004160002181600C22C160C0E904128161B2
:101BA000C161FFF7FFFD002803D0BDE81040FEF73C
:101BB000CEBB10BD00100140F80000200D4810B54C
:101BC0000B4901600C49416000214FF48062816043
:101BD000C0E903120C22C0E90521C161FFF7E2FD53
:101BE000002803D0BDE81040FEF7B1BB10BD0000D7
:101BF0000044004038010020A0860100FEE7704745
:101C000070477047FFF77AB830B593B03021684617
:101C1000FEF70EFB14210CA8FEF70AFB1D48002559
:101C2000016841F080510160006800F0805011901F
:101C30001948016841F4804101600068022400F401
:101C40008040119001200090000401908001CDE9B6
:101C5000064008AA0420A82182E813000B906846D9
:101C6000FFF7CEF908B1FFF753FE0CA90F2081E86A
:101C700031004FF4A0500F904FF480501090052188
:101C80000CA8FFF7D5F8002801D0FFF741FE13B0EC
:101C900030BD00004038024000700040104801682C
:101CA00041F4700101600F48016841F001010160D9
:101CB0000C4A00210832116002680B4B1A40026086
:101CC000031D0A4A1A60026822F480220260054855
:101CD0000C300160024958068039086070470000E6
:101CE00088ED00E000380240FFFFF6FE10300024CF
:101CF0000148FFF717BC0000380000200148FFF73B
:101D000011BC0000780000200148FFF70BBC000068
:101D1000B8000020F0B50268254C264D264E274F0E
:101D2000274B4FF0804CA04209D0604507D0A84215
:101D300005D0B04203D0B84201D0984204D122F07D
:101D4000700E4A6842EA0E02A0421BD0604519D0CC
:101D5000A84217D0B04215D0B84213D0984211D043
:101D6000184DA8420ED0184DA8420BD0174DA842CE
:101D700008D0174DA84205D0164DA84202D0164DE6
:101D8000A84203D122F44075CA682A434D6922F063
:101D900080022A4302608A68C2620A688262A042A4
:101DA00001D0984201D10969016301214161F0BD6F
:101DB000000001400004004000080040000C00400A
:101DC000000401400040014000440140004801403F
:101DD00000180040001C00400020004010B584683E
:101DE00042EA032224F47F440A432243826010BD66
:101DF000826822F070020A4342F007018160704756
:101E000010B5036A046A24F001040462846924F0B2
:101E1000F00444EA021423F00A020A4384610262D5
:101E200010BD10B5036A23F0100303628369046ACE
:101E300023F4704343EA023224F0A00343EA011181
:101E40008261016210BD10B5806B0021C185C18423
:101E5000FFF71FFC10BD0168CA6822F49072CA60C7
:101E600001684A6922F001024A61202180F83A1093
:101E7000704710B590F83A10222901D0022010BD09
:101E80008168B1F5805F11D00169002901681FD018
:101E9000496801F07F03816A4A1C82620B70C18D20
:101EA000491E0904090CC18518D02BE00269816A1A
:101EB000002A0268526805D0D2B20A80816A491CA1
:101EC0008162ECE7C2F308020A80816A891CF7E7A5
:101ED0004A68816A4B1C83620A70E0E70168CA683D
:101EE00022F02002CA600168CA6822F48072CA60C7
:101EF00001684A6922F001024A61202180F83A1003
:101F0000FFF702FD002010BD2DE9F04104460068F6
:101F10000169E26821F44051114301612169A0681F
:101F2000E26908436169114322680843D16849F2B4
:101F30000C6399430143D16020684169A26921F48F
:101F4000407111434161E2696425B2F5004F974841
:101F5000974922684FF032083FD08A4201D082422E
:101F60007CD1FFF70DF800EBC00101EB00106168B8
:101F70008900B0FBF1F6FFF703F800EBC00101EBBD
:101F8000001061688900B0FBF1F0B0FBF5F06FF074
:101F90001801484306EB800108EB0110B0FBF5F097
:101FA00000F0F006FEF7ECFF00EBC00101EB0010C3
:101FB00061688900B0FBF1F0B0FBF5F006EB0016AC
:101FC000FEF7DEFF00EBC00101EB00106168890045
:101FD000B0FBF1F7FEF7D4FFD2E08A4201D0824293
:101FE0003DD1FEF7CDFF00EBC00101EB00106168B1
:101FF0004900B0FBF1F0B0FBF5F00601FEF7C0FFC1
:1020000000EBC00101EB001061684900B0FBF1F783
:10201000FEF7B6FF00EBC00101EB0010616849005C
:10202000B0FBF1F0B0FBF5F06FF01801484307EB9F
:10203000800108EBC100B0FBF5F000F0F80006EB02
:102040004006FEF79DFF00EBC00101EB0010616848
:102050004900B0FBF1F7FEF793FF3CE055E0FEF7D7
:102060007FFF00EBC00101EB001061684900B0FB8D
:10207000F1F0B0FBF5F00601FEF772FF00EBC001D6
:1020800001EB001061684900B0FBF1F7FEF768FF53
:1020900000EBC00101EB001061684900B0FBF1F0FA
:1020A000B0FBF5F06FF01801484307EB800108EB37
:1020B000C100B0FBF5F000F0F80006EB4006FEF7BB
:1020C0004FFF00EBC00101EB001061684900B0FB5D
:1020D000F1F7FEF745FF00EBC00101EB001061686E
:1020E0004900B0FBF1F0B0FBF5F06FF01801484388
:1020F00007EB800108EBC100B0FBF5F000F0070032
:10210000216830448860BDE8F081FEF729FF00EBCC
:10211000C00101EB001061688900B0FBF1F6FEF729
:102120001FFF00EBC00101EB001061688900B0FBEC
:10213000F1F0B0FBF5F06FF01801484306EB8001B9
:1021400008EB0110B0FBF5F000F0F006FEF708FF19
:1021500000EBC00101EB001061688900B0FBF1F0F9
:10216000B0FBF5F006EB0016FEF7FAFE00EBC0013F
:1021700001EB001061688900B0FBF1F7FEF7F0FE9B
:1021800000EBC00101EB001061688900B0FBF1F0C9
:10219000B0FBF5F06FF01801484307EB800108EB46
:1021A0000110B0FBF5F000F00F00A9E700140140AA
:1021B0000010014090F83910212901D00220704709
:1021C0008168B1F5805F016A0BD04A1C0262026827
:1021D00009785160C18C491E0904090CC1840ED0D4
:1021E00017E009880268C1F30801516001690029FC
:1021F000016A02D0491C0162ECE7891CFBE7016817
:10220000CA6822F08002CA600068C16841F04001DB
:10221000C1600020704700000148FFF73BBA000092
:10222000F80000200148FFF735BA0000380100200F
:10223000FEE70907090E002804DB00F1E02080F822
:102240000014704700F00F0000F1E02080F8141D2A
:10225000704702E008C8121F08C1002AFAD170476F
:102260007047002001E001C1121F002AFBD1704716
:1022700000B58BB000210122CDE906120591009135
:1022800001910291039104910E21CDE90821694643
:10229000FEF772F80448FEF7CDFA02210248FEF775
:1022A00058F80BB000BD000010000020FEF72EFD16
:1022B000FFF73EFBFFF7A8FCFFF79EFBFFF786FB4F
:1022C000FFF75EFBFFF7D0FBFFF75CFCFFF776FC48
:1022D000FFF7FEFBFFF732FC0148FFF7C9FFFEE7FF
:1022E0001000002000061016000610160000000066
:1022F00000000000010203040607080900000000B6
:102300000102030424230008000000201000000044
:10231000522200083423000810000020C8050000E5
:102320006222000801000000100000000000000010
:042330000024F40091
:040000050800018965
:00000001FF
